01010009164011900180PISTACHE KG                                                                                                                                                                                                                                                                                                 
01010009205001790004FORA LINHA                                                                                                                                                                                                                                                                                                  
01010009211002290000RICOTA FRESCA TIPO A PORT                                                                                                                                                                                                                                                                                   
01010009212003490000QUEIJO MINAS FRESCAL PORT                                                                                                                                                                                                                                                                                   
01010009221002990036BISC 3F BEM CASADO KG                                                                                                                                                                                                                                                                                       
01011009223005000000DISJ DIN 2X25A C N32C25 3                                                                                                                                                                                                                                                                                   
01010009265004290000QUEIJO MOZZARELA BUFALA K                                                                                                                                                                                                                                                                                   
01010009273002990007GOTA PINGO CHOC KG                                                                                                                                                                                                                                                                                          
01010009286002990090PIMENTA CALABRESA KG                                                                                                                                                                                                                                                                                        
01010009308008990015BACALHAU COC 7/9 GADUS MO                                                                                                                                                                                                                                                                                   
01010009309000999360SAL ROSA FINO HIMALAIA KG                                                                                                                                                                                                                                                                                   
01010009310000999360SAL DO HIMALAIA GROSSO KG                                                                                                                                                                                                                                                                                   
01010009317003990015QUEIJO LARA TIPO PROVOL T                                                                                                                                                                                                                                                                                   
01010009336002990060BISC 3F ENROLADINHO DE GO                                                                                                                                                                                                                                                                                   
01010009341001699030CORACAO FRANGO AVIVAR CON                                                                                                                                                                                                                                                                                   
01010009366003990360GENGIBRE MOIDO KG                                                                                                                                                                                                                                                                                           
01010009375005990360OREGANO UNIAGRO AGRANEL K                                                                                                                                                                                                                                                                                   
01010009386001990000COXAO MOLE RESF FRIBOI VA                                                                                                                                                                                                                                                                                   
01010009387004490000CONTRA FILE RESF FRIBOI V                                                                                                                                                                                                                                                                                   
01010009390001299005PALETA COM OSSO KG                                                                                                                                                                                                                                                                                          
01010009391002190004BISTECA DA PALETA   KG                                                                                                                                                                                                                                                                                      
01010009392001990005PALETA ESPECIAL KG                                                                                                                                                                                                                                                                                          
01010009393001899005OSSO BUCO DA PALETA KG                                                                                                                                                                                                                                                                                      
01010009394001590005PEITO COM OSSO KG                                                                                                                                                                                                                                                                                           
01010009395002190005BISTECA DO PEITO KG                                                                                                                                                                                                                                                                                         
01010009397018000180CEREJA MARRASCQUINO C/TAL                                                                                                                                                                                                                                                                                   
01010009401001599005COSTELINHA DO PEITO KG                                                                                                                                                                                                                                                                                      
01010009402001599005PICADINHO ESPECIAL KG                                                                                                                                                                                                                                                                                       
01010009403001590000PEITO FRIBOI VACUO KG                                                                                                                                                                                                                                                                                       
01010009428004490090CONTRA FILE T-BONE BANDEJ                                                                                                                                                                                                                                                                                   
01010009429002890090BISTECA DO CONTRA BDJ KG                                                                                                                                                                                                                                                                                    
01010009430002890005BISTECA DO ACHO BANDEJA                                                                                                                                                                                                                                                                                     
01010009431002590005PRIME RIB BANDEJA KG                                                                                                                                                                                                                                                                                        
01010009441009890090ABACAXI RODELA DESIDRATAD                                                                                                                                                                                                                                                                                   
01010009443003990015QUEIJO LARA TIPO PROVOL D                                                                                                                                                                                                                                                                                   
01010009445003990009QUEIJO PARMESAO ESPECIAL                                                                                                                                                                                                                                                                                    
01010009446002990004SALSICHA VIENA CERATTI T                                                                                                                                                                                                                                                                                    
01010009505001790000COXINHA ASA AGRANEL KG                                                                                                                                                                                                                                                                                      
01010009535004990000FILE MIGNON RESERVA VACUO                                                                                                                                                                                                                                                                                   
01010009538003490000BABY BEEF FRIBOI RESERVA                                                                                                                                                                                                                                                                                    
01010009539003890000CONTRA FILE PORCIONADO FR                                                                                                                                                                                                                                                                                   
01010009540002699000FILE DE COSTELA RESERVA V                                                                                                                                                                                                                                                                                   
01010009541002490000COXAO MOLE RESERVA VACUO                                                                                                                                                                                                                                                                                    
01010009544002890000COXAO DURO RESERVA VACUO                                                                                                                                                                                                                                                                                    
01010009545002990000LAGARTO RESERVA VACUO KG                                                                                                                                                                                                                                                                                    
01010009546002990000FRALDINHA RESERVA VACUO K                                                                                                                                                                                                                                                                                   
01010009547002790000MUSCULO RESERVA VACUO KG                                                                                                                                                                                                                                                                                    
01010009548002490000PALETA RESERVA VACUO KG                                                                                                                                                                                                                                                                                     
01010009549001599000PONTA DE PEITO RESERVA VA                                                                                                                                                                                                                                                                                   
01010009550003590000CUPIM RESERVA VACUO KG                                                                                                                                                                                                                                                                                      
01010009551004490005BIFE DE MIGNON RESERVA BD                                                                                                                                                                                                                                                                                   
01010009552003999005STROGNOFF MIGNON RESERVA                                                                                                                                                                                                                                                                                    
01010009553004259005MEDALHAO DE MIGNON RESERV                                                                                                                                                                                                                                                                                   
01010009554005490000FILE MIGNON PORC RESERVA                                                                                                                                                                                                                                                                                    
01010009555006990005BIFE DE PICANHA RESERVA B                                                                                                                                                                                                                                                                                   
01010009557004290005BIFE DE MAMINHA RESERVA B                                                                                                                                                                                                                                                                                   
01010009558004290005MAMINHA SANFONADA RESERVA                                                                                                                                                                                                                                                                                   
01010009559004290005MAMINHA NOBRE BABY RESERV                                                                                                                                                                                                                                                                                   
01010009560003590005MIOLO DE ALCATRA PORC RES                                                                                                                                                                                                                                                                                   
01010009561003890005BIFE ALCATRA RESERVA BDJ                                                                                                                                                                                                                                                                                    
01010009562003590005MIOLO ALCATRA BABY BEEF R                                                                                                                                                                                                                                                                                   
01010009563003890005BOMBOM DO ALCATRA RESERVA                                                                                                                                                                                                                                                                                   
01010009564003890005MEDALHAO DO ALCATRA RESER                                                                                                                                                                                                                                                                                   
01010009565003890005STROGONOFF ALCATRA RESERV                                                                                                                                                                                                                                                                                   
01010009566004490005CONTRA FILE PEDACO RESERV                                                                                                                                                                                                                                                                                   
01010009567004490005BIFE DE CONTRA RESERVA BD                                                                                                                                                                                                                                                                                   
01010009568004490005CONTRA FILE GRILL RESERVA                                                                                                                                                                                                                                                                                   
01010009569002990000BOMBOM DA ALCATRA FRIBOI/                                                                                                                                                                                                                                                                                   
01010009570003349005MIOLO DO CONTRA FILE RESE                                                                                                                                                                                                                                                                                   
01010009571004490005BIFE LIGHT CONTRA FILE RE                                                                                                                                                                                                                                                                                   
01010009572004490005CONTRA FILE PORC RESERVA                                                                                                                                                                                                                                                                                    
01010009573002969090CONTRA FILE BIFE ANCHO RE                                                                                                                                                                                                                                                                                   
01010009574003290005COXAO MOLE PORC RESERVA B                                                                                                                                                                                                                                                                                   
01010009575003290005BIFE COXAO MOLE RESERVA B                                                                                                                                                                                                                                                                                   
01010009576003290005COXAO MOLE BIFE LIGHT RES                                                                                                                                                                                                                                                                                   
01010009577003290005COXAO MOLE BIFE PARIS RES                                                                                                                                                                                                                                                                                   
01010009578002990005STROGONOFF CX MOLE RESERV                                                                                                                                                                                                                                                                                   
01010009579003290005COXAO MOLE BROCHETE RESER                                                                                                                                                                                                                                                                                   
01010009580003290005COXAO MOLE ASSADO CAMPEST                                                                                                                                                                                                                                                                                   
01010009581003290005COXAO MOLE CORTE ORIENTAL                                                                                                                                                                                                                                                                                   
01010009582003290005COXAO MOLE CORTE ESPIRAL                                                                                                                                                                                                                                                                                    
01010009583003290005COXAO MOLE FLATBEEF RESER                                                                                                                                                                                                                                                                                   
01010009584003290005PATINHO PORC RESERVA BDJ                                                                                                                                                                                                                                                                                    
01010009585003290005BIFE DE PATINHO RESERVA B                                                                                                                                                                                                                                                                                   
01010009586003290005PATINHO DUCKBEFF RESERVA                                                                                                                                                                                                                                                                                    
01010009587003290005PATINHO FLANBEEF RESERVA                                                                                                                                                                                                                                                                                    
01010009588002380005PATINHO ESCALOPE RESERVA                                                                                                                                                                                                                                                                                    
01010009589003290005STROGONOFF PATINHO RESERV                                                                                                                                                                                                                                                                                   
01010009590001980005COZIDO CALIFORNIA RESERVA                                                                                                                                                                                                                                                                                   
01010009591002890005COXAO DURO PORC RESERVA B                                                                                                                                                                                                                                                                                   
01010009592002890005BIFE COXAO DURO RESERVA B                                                                                                                                                                                                                                                                                   
01010009593002890005COXAO DURO BIFE PARA ROLE                                                                                                                                                                                                                                                                                   
01010009594002890005COXAO DURO REDBEEF RESERV                                                                                                                                                                                                                                                                                   
01010009595002890005COXAO DURO STRETTO RESERV                                                                                                                                                                                                                                                                                   
01010009596002890005COXAO DURO BIFE DE PANELA                                                                                                                                                                                                                                                                                   
01010009597002890005CUBOS COXAO DURO RESERVA                                                                                                                                                                                                                                                                                    
01010009598002990005LAGARTO PORC RESERVA BDJ                                                                                                                                                                                                                                                                                    
01010009599002990005BIFE DE LAGARTO RESERVA B                                                                                                                                                                                                                                                                                   
01010009600002990005LAGARTO BIFE PALHA RESERV                                                                                                                                                                                                                                                                                   
01010009601002990030LAGARTO ESCABECHE RESERVA                                                                                                                                                                                                                                                                                   
01010009602002299005LAGARTO PARA RECHEAR RESE                                                                                                                                                                                                                                                                                   
01010009603002990005LAGARTO SANFONADO RESERVA                                                                                                                                                                                                                                                                                   
01010009604002990005LAGARTO ESPECIAL RESERVA                                                                                                                                                                                                                                                                                    
01010009605003290005FRALDINHA NOBRE RESERVA B                                                                                                                                                                                                                                                                                   
01010009606003290005FRALDINHA STEAK VIRGINHA                                                                                                                                                                                                                                                                                    
01010009607002259005FRALDA PORC RESERVA BDJ K                                                                                                                                                                                                                                                                                   
01010009608001890005MUSCULO PORC RESERVA BDJ                                                                                                                                                                                                                                                                                    
01010009609002790005MUSCULO MOLE ESPECIAL RES                                                                                                                                                                                                                                                                                   
01010009610002790005MUSCULO MOLE FATIADO RESE                                                                                                                                                                                                                                                                                   
01010009611002790005MUSCULO TORTUGUITA RESERV                                                                                                                                                                                                                                                                                   
01010009612002790005MUSCULO PICADO RESERVA BD                                                                                                                                                                                                                                                                                   
01010009613001890005MUSCULO MUIDO RESERVA BDJ                                                                                                                                                                                                                                                                                   
01010009614002990000ACEM RESERVA VACUO KG                                                                                                                                                                                                                                                                                       
01010009615001799005ACEM PEDACO PORC RESERVA                                                                                                                                                                                                                                                                                    
01010009616002290005ACEM LOMBINHO RESERVA BDJ                                                                                                                                                                                                                                                                                   
01010009617001890005ACEM BIFE DE CACAROLA RES                                                                                                                                                                                                                                                                                   
01010009618001799005CUBOS DE ACEM RESERVA BDJ                                                                                                                                                                                                                                                                                   
01010009619001459005CARNE CACAROLA RESERVA BD                                                                                                                                                                                                                                                                                   
01010009620002490005PALETA PORC RESERVA BDJ K                                                                                                                                                                                                                                                                                   
01010009621002490005PALETA ASSADO INGLES RESE                                                                                                                                                                                                                                                                                   
01010009622002490005PALETA BIFE PRA MILANESA                                                                                                                                                                                                                                                                                    
01010009623001699005PEIXINHO TRAD RESERVA BDJ                                                                                                                                                                                                                                                                                   
01010009624002690005PEIXINHO ESPECIAL RESERVA                                                                                                                                                                                                                                                                                   
01010009625002690005PEIXINHO SANFONADO RESERV                                                                                                                                                                                                                                                                                   
01010009626002290005CUBOS DE PALETA RESERVA B                                                                                                                                                                                                                                                                                   
01010009627002290005PALETA BIFE BORBOLETA RES                                                                                                                                                                                                                                                                                   
01010009628001790005PALETA MOIDA RESERVA BDJ                                                                                                                                                                                                                                                                                    
01010009630001990005PONTA DE PEITO ESPECIAL R                                                                                                                                                                                                                                                                                   
01010009631002790005MACA PEITO BIFE A MINEIRA                                                                                                                                                                                                                                                                                   
01010009632002890005PEITO CUBOS PARA SOPA RES                                                                                                                                                                                                                                                                                   
01010009634002290005ACEM MOIDO RESERVA BDJ KG                                                                                                                                                                                                                                                                                   
01010009635001490030ORELHA SUINA RESFRIADO KG                                                                                                                                                                                                                                                                                   
01011009646000349006ALFACE BABY UNIDADE                                                                                                                                                                                                                                                                                         
01011009647000579006ALFACE BABY MIX UNIDADE                                                                                                                                                                                                                                                                                     
01011009648000579005SALADA  MIX 1 UNIDADE                                                                                                                                                                                                                                                                                       
01011009649000579005SALADA  MIX 2 UNIDADE                                                                                                                                                                                                                                                                                       
01010009655000849030FRANGO SEARA CONG KG                                                                                                                                                                                                                                                                                        
01010009666003490060DOCE ABELHINHA CRISTALIZA                                                                                                                                                                                                                                                                                   
01010009667006000060CONVERSOR HD P/CAM HD/ANA                                                                                                                                                                                                                                                                                   
01011009687013260007BANDEJA M-03 PRETA C/LAMI                                                                                                                                                                                                                                                                                   
01011009700014000007BANDEJA M54 ESPECIAL 400U                                                                                                                                                                                                                                                                                   
01010009815008000030AMIDO AMILOGILL 25KG                                                                                                                                                                                                                                                                                        
01010009855001349000FRANGO SADIA CONG ASSA FA                                                                                                                                                                                                                                                                                   
01010009864002390000CHURRASCAO TEMP KG                                                                                                                                                                                                                                                                                          
01010009975001590004PEITO FRANGO DEFUM PIF PA                                                                                                                                                                                                                                                                                   
01010009979002290000SOBREPALETA SUINA RECH PI                                                                                                                                                                                                                                                                                   
01011009982001000008TAXA DE ENTREGA                                                                                                                                                                                                                                                                                             
01010009983001890005PEITO RESF RESERVA KG                                                                                                                                                                                                                                                                                       
