01010000002012990090BLUEBERRY KG                                                                                                                                                                                                                                                                                                
01010000003002899004COXAO MOLE KG                                                                                                                                                                                                                                                                                               
01010000004002799004COXAO DURO KG                                                                                                                                                                                                                                                                                               
01010000005003490004FILE MIGNON KG                                                                                                                                                                                                                                                                                              
01010000006002699004LAGARTO KG                                                                                                                                                                                                                                                                                                  
01010000007002790005PATINHO KG                                                                                                                                                                                                                                                                                                                                                                                                                                                                                                                                                                        
01010000020001990005LOMBO SUINO KG                                                                                                                                                                                                                                                                                              
01010000021001790030PERNIL SUINO TRASEIRO S/O                                                                                                                                                                                                                                                                                   
01010000023001090016MIUDOS P/FEIJOADA KG                                                                                                                                                                                                                                                                                        
01010000024001090005SUAN SUINA KG                                                                                                                                                                                                                                                                                               
01010000025000999030TOUCINHO P/BANHA KG                                                                                                                                                                                                                                                                                         
01010000026000225020CONJ G100BR EMB FRANGO BC                                                                                                                                                                                                                                                                                   
01010000027000649015COXINHA ASA SERTANEJO INT                                                                                                                                                                                                                                                                                   
01010000028000632010MIUDOS FRANGO TEMP KG                                                                                                                                                                                                                                                                                       
01010000029000599015CORACAO BOVINO KG                                                                                                                                                                                                                                                                                           
01010000030002490030LINGUICA PERNIL/RUCULA KG                                                                                                                                                                                                                                                                                   
01010000031011990061TAMARA FRESCA KG                                                                                                                                                                                                                                                                                            
01010000032001590090ACUCAR MASCAVO KG                                                                                                                                                                                                                                                                                           
01010000033000899060LINGUICA BATAVO TOSCANA K                                                                                                                                                                                                                                                                                   
01010000034001690007LINGUICA PERDIGAO PAIO KG                                                                                                                                                                                                                                                                                   
01010000035001990030LINGUICA REZENDE CALABRES                                                                                                                                                                                                                                                                                   
01010000036001790006LINGUICA GRANDIOSA FRANGO                                                                                                                                                                                                                                                                                                                                                                                                                                                                                                                                                              
01010000043000499005PEITO FRANGO DAGRANJA PAC                                                                                                                                                                                                                                                                                   
01010000044001290015CARRE SUINO NAO LANCAR NF                                                                                                                                                                                                                                                                                   
01010000045002190015BISTECA BOVINA KG                                                                                                                                                                                                                                                                                           
01010000047001590015LINGUICA PIF PAF PAIO KG                                                                                                                                                                                                                                                                                    
01010000048002190002ALMONDEGA PINHEIRAO KG                                                                                                                                                                                                                                                                                      
01010000049002190002KIBE  KG                                                                                                                                                                                                                                                                                                    
01010000050000798015FILE PEITO FRANGO DAGRANJ                                                                                                                                                                                                                                                                                   
01010000051001890004PAO INTEGRAL C/CANELA KG                                                                                                                                                                                                                                                                                    
01010000052001890090COSTELA BOVINA GAUCHA KG                                                                                                                                                                                                                                                                                    
01010000053001990090RABADA BDJ KG                                                                                                                                                                                                                                                                                               
01010000054001289004MORTADELA REZENDE BOLONHA                                                                                                                                                                                                                                                                                   
01010000055000647030PASTA DE AMENDOAS/AVELAS/                                                                                                                                                                                                                                                                                   
01010000056002290030BACON REZENDE MANTA KG                                                                                                                                                                                                                                                                                      
01010000057004990000QUEIJO MINAS ARTESANAL KG                                                                                                                                                                                                                                                                                   
01010000059001790004APRESUNTADO PIF PAF KG                                                                                                                                                                                                                                                                                      
01010000060001690004APRESUNTADO SEARA KG                                                                                                                                                                                                                                                                                        
01010000061000790008FEIJAO MARCASSO KG                                                                                                                                                                                                                                                                                          
01010000062001490004APRESUNTADO REZENDE KG                                                                                                                                                                                                                                                                                      
01010000064002749005PALETAO KG                                                                                                                                                                                                                                                                                                  
01010000065001299030COXINHA ASA PIF PAF KG                                                                                                                                                                                                                                                                                      
01011000068030000005QUADRO TELEFONE SOB 30X30                                                                                                                                                                                                                                                                                   
01010000069001990006LINGUICA SADIA CARNE SUIN                                                                                                                                                                                                                                                                                   
01010000070001490060CARRE ESPECIAL SADIA CONG                                                                                                                                                                                                                                                                                   
01010000071001999003MUCHIBA KG                                                                                                                                                                                                                                                                                                  
01010000072003000060CHAVE KNOBS P/TODAS 202/C                                                                                                                                                                                                                                                                                   
01010000073000229015FIGADO DE FRANGO KG                                                                                                                                                                                                                                                                                         
01010000074002190030BROA DE QUEIJO KG                                                                                                                                                                                                                                                                                           
01010000075001490010PRESUNTO COZIDO DAGRANJA                                                                                                                                                                                                                                                                                    
01010000076001990030PAO DE LO KG                                                                                                                                                                                                                                                                                                
01010000077001890030COCKIES CHOCOLATE KG                                                                                                                                                                                                                                                                                        
01010000078001590006LINGUICA GRANDIOSA TOSCAN                                                                                                                                                                                                                                                                                   
01010000079001790060CHURRASCO TEMP KG                                                                                                                                                                                                                                                                                           
01010000080001590060MORTADELA TUBULAR CHAPECO                                                                                                                                                                                                                                                                                   
01010000081001290015FERMENTO A GRANEL KG                                                                                                                                                                                                                                                                                        
01010000082002590000CAPA DE CONTRA FILE KG                                                                                                                                                                                                                                                                                      
01010000084001790030LINGUICA PIF PAF TIPO CAL                                                                                                                                                                                                                                                                                   
01010000085000299006MORTADELA SADILAR KG                                                                                                                                                                                                                                                                                        
01010000086006990000QUEIJO PRATO VALEZA FAT I                                                                                                                                                                                                                                                                                   
01010000087000769015CORACAO FRANGO DAGRANJA P                                                                                                                                                                                                                                                                                   
01010000088001499004APRESUNTADO SADIA KG                                                                                                                                                                                                                                                                                        
01010000089001299010FRANGO PASSARINHO KG                                                                                                                                                                                                                                                                                        
01010000090002590011QUEIJO CANTO MINAS TIPO M                                                                                                                                                                                                                                                                                   
01010000091004990000QUEIJO PROV VALEZA FAT KG                                                                                                                                                                                                                                                                                   
01010000093001490005BOLO AMENDOIM KG                                                                                                                                                                                                                                                                                            
01010000094002490004QUEIJO MUSSARELA ARALAT K                                                                                                                                                                                                                                                                                   
01010000096003690004BLANQUET PERU SADIA COZ L                                                                                                                                                                                                                                                                                   
01010000097002261090CONJ MINI TORTA GALVAN G3                                                                                                                                                                                                                                                                                   
01010000098001290060LOMBO DEFUMADO CHAPECO KG                                                                                                                                                                                                                                                                                   
01010000099000439060MORTADELA CHAPECO PQ KG                                                                                                                                                                                                                                                                                     
01010000100001490030APRESUNTADO CHAPECO KG                                                                                                                                                                                                                                                                                      
01010001007002490030LINGUICA VACA ATOLADA KG                                                                                                                                                                                                                                                                                    
01010001008002490030LINGUICA FRANGO/MILHO/GUA                                                                                                                                                                                                                                                                                   
01010000101001490030PRESUNTO COZIDO FAM CHAPE                                                                                                                                                                                                                                                                                   
01010000102003690004PRESUNTO PERU SADIA KG                                                                                                                                                                                                                                                                                      
01010000103002790004PRESUNTO SADIA KG                                                                                                                                                                                                                                                                                           
01010001031001990002ALMONDEGA SUINA PERTI CAS                                                                                                                                                                                                                                                                                   
01010000104001290003COUVE FLOR PICADA SINHA                                                                                                                                                                                                                                                                                     
01010000105000889015LINGUICA CHAPECO CALAB DE                                                                                                                                                                                                                                                                                   
01010000106000379030MORTADELA EXTRA DAGRANJA                                                                                                                                                                                                                                                                                    
01010000107000299030MORTADELA COZIDA DAGRANJA                                                                                                                                                                                                                                                                                   
01010000108000369005FRANGO CONG BROTAO KG                                                                                                                                                                                                                                                                                       
01010000109000489005MORTADELA BROTAO DAGRANJA                                                                                                                                                                                                                                                                                   
01010000110001490005APRESUNTADO BROTAO DAGRAN                                                                                                                                                                                                                                                                                   
01010000111002290030BACON SEARA MANTA KG                                                                                                                                                                                                                                                                                        
01010000112009999000PEITO PERU DEF SADIA FAM                                                                                                                                                                                                                                                                                    
01010000113002890030BACON SADIA MANTA KG                                                                                                                                                                                                                                                                                        
01010000114000599015SALSICHA HOT DOG WILSON K                                                                                                                                                                                                                                                                                   
01010000115002690000QUEIJO DINHA MINAS FRESCA                                                                                                                                                                                                                                                                                   
01010000116003290004PATINHO BANDEJA KG                                                                                                                                                                                                                                                                                          
01010000117000699004SALSICHA HOT DOG REZENDE                                                                                                                                                                                                                                                                                    
01010000118000399030SALSICHA HOT DOG SERTANEJ                                                                                                                                                                                                                                                                                   
01011000119000399008JILO BANDEJA 300G                                                                                                                                                                                                                                                                                           
01010000120002890003COXAO DURO BOV BANDEJA KG                                                                                                                                                                                                                                                                                   
01010000121000499030PRESUNTINA RETANG PERDIGA                                                                                                                                                                                                                                                                                   
01010000122000299030CONJ REDONDO GALVANOTEK G                                                                                                                                                                                                                                                                                   
01010000123001199060SALAME SADIA FRIOLANO IT                                                                                                                                                                                                                                                                                    
01010000124002990000QUEIJO DINHA TEMPERADO PE                                                                                                                                                                                                                                                                                   
01010000125002690016TORRADA TEMPERADA KG                                                                                                                                                                                                                                                                                        
01010000126001890003PERNIL SUINO BANDEJA KG                                                                                                                                                                                                                                                                                     
01010001266001099090ACUCAR DEMERARA KG                                                                                                                                                                                                                                                                                          
01010000127002490030PIZZA SINHA SABORES KG                                                                                                                                                                                                                                                                                      
01010000128013836030CONJ TORTA G50MA GALVANOT                                                                                                                                                                                                                                                                                   
01010000129001990015QUEIJO CANTO MINAS PRATO                                                                                                                                                                                                                                                                                    
01010000130002390000LOMBO TEMPERADO REZENDE K                                                                                                                                                                                                                                                                                   
01010000131000999004RETALHO MORTADELA KG                                                                                                                                                                                                                                                                                        
01010000132001290004PAO CACHORRO QUENTE KG                                                                                                                                                                                                                                                                                      
01010000133001190005BOLO MARACUJA KG                                                                                                                                                                                                                                                                                            
01010000134001290003ROSCA C/FRUTAS KG                                                                                                                                                                                                                                                                                           
01010000135002190004PRESUNTO PERU REZENDE KG                                                                                                                                                                                                                                                                                    
01010000136009999000FORA LINHA                                                                                                                                                                                                                                                                                                  
01010000137003489015TENDER JUNIOR DAGRANJA KG                                                                                                                                                                                                                                                                                   
01010000138001490002SONHO KG                                                                                                                                                                                                                                                                                                    
01010000139002999006BACON SADIA FATIADO KG                                                                                                                                                                                                                                                                                      
01010000140000419005FRANGO GOURMET DAGRANJA K                                                                                                                                                                                                                                                                                   
01010000141001190006PUDIM QUEIJO KG                                                                                                                                                                                                                                                                                             
01010000142003290004COXAO MOLE BOV BANDEJA KG                                                                                                                                                                                                                                                                                   
01010000143004990005SALAME REZENDE ITALIANO K                                                                                                                                                                                                                                                                                   
01010000144001390007ROCAMBOLE  KG                                                                                                                                                                                                                                                                                               
01010001441000299004BATATA PIRULITO KG                                                                                                                                                                                                                                                                                          
01010000145003590004MIOLO DE ALCATRA BANDEJA                                                                                                                                                                                                                                                                                    
01010000146002990030SALAME SADIA ITALIANO CAL                                                                                                                                                                                                                                                                                   
01010000147001290004PAO MILHO KG                                                                                                                                                                                                                                                                                                
01010000148000250010PEPINO JAPONES KG                                                                                                                                                                                                                                                                                           
01010000149002990000QUEIJO DINHA MINAS FRESCA                                                                                                                                                                                                                                                                                   
01010000150001190180POLPA FRUTA NATURAL CONGE                                                                                                                                                                                                                                                                                   
01010000151001699000PERU PERDIGAO KG                                                                                                                                                                                                                                                                                            
01010000152001890003SALADA DIVERSAS PERTI CAS                                                                                                                                                                                                                                                                                   
01010000154002490010AZEITONA VERDE UNIAGRO C/                                                                                                                                                                                                                                                                                   
01010000155002990000DOCE ABELHINHA CRISTALIZA                                                                                                                                                                                                                                                                                   
01011000156000749021CEREJA ARTIFICIAL KG                                                                                                                                                                                                                                                                                        
01010000157004790000QUEIJO CALU MUSS MINI TRA                                                                                                                                                                                                                                                                                   
01010000158001990008PONTA PICANHA BANDEJA KG                                                                                                                                                                                                                                                                                    
01010000160002690030LINGUICA SADIA TIPO CALAB                                                                                                                                                                                                                                                                                   
01010000162001090015PAO  FRANCES MINI KG                                                                                                                                                                                                                                                                                        
01010000163001980000QUEIJO CALU RICOTA FRESCA                                                                                                                                                                                                                                                                                   
01010000164000489030MORTADELA FRIMESA KG                                                                                                                                                                                                                                                                                        
01010000165000499015FRANGO CONG JUSSARA KG                                                                                                                                                                                                                                                                                      
01010000166002090005LOMBO SUINO BANDEJA KG                                                                                                                                                                                                                                                                                      
01010000167002590003CONTRA FILE BANDEJA KG                                                                                                                                                                                                                                                                                      
01010000168001690003BOLO QUEIJO CASEIRO KG                                                                                                                                                                                                                                                                                      
01010000169000889030DOBRADINHA BANDEJA KG                                                                                                                                                                                                                                                                                       
01010000170002090030TOUCINHO TORRESMO BANDEJA                                                                                                                                                                                                                                                                                   
01010000172002190007PAO INTEGRAL KG                                                                                                                                                                                                                                                                                             
01010000174005990090FILE DE BACALHAU SAITHE K                                                                                                                                                                                                                                                                                   
01010000177008990090BACALHAU DO PORTO KG                                                                                                                                                                                                                                                                                        
01010000178003990360AMEIXA UNIAGRO SECA S/CAR                                                                                                                                                                                                                                                                                   
01011000180005000030CANALETA FECH 50X20X2M 36                                                                                                                                                                                                                                                                                   
01010000183000419060MORTADELA CHAPECO FAMILIA                                                                                                                                                                                                                                                                                   
01010000184001699000QUEIJO RICOTA CANTO MINAS                                                                                                                                                                                                                                                                                   
01010000189002990060CARNE DE SOL KG                                                                                                                                                                                                                                                                                             
01010000194002999004QUEIJO CANTO MINAS MUSSAR                                                                                                                                                                                                                                                                                   
01010000195004390000QUEIJO CANTO MINAS PRATO                                                                                                                                                                                                                                                                                    
01010000197000399006MORTADELA ROSFRIOS KG                                                                                                                                                                                                                                                                                       
01010000198001498020QUITANDA  GAUCHO KG                                                                                                                                                                                                                                                                                         
01010000199001490015SALSICHA FRANGO PERDIGAO                                                                                                                                                                                                                                                                                    
01010000202001490006LINGUICA PERDIGAO MISTA C                                                                                                                                                                                                                                                                                   
01010000208001299060CHICKEN BITS FRANGO REZEN                                                                                                                                                                                                                                                                                   
01010000209080000060COMP EMBRACO 1/3+FFI 12BX                                                                                                                                                                                                                                                                                   
01010000211001690090DOBRADINHA BDJ KG                                                                                                                                                                                                                                                                                           
01010000212000990030PEITO FRANGO AVE NOVA  KG                                                                                                                                                                                                                                                                                   
01010000213001490004BOLO CHOCOLATE KG                                                                                                                                                                                                                                                                                           
01010000215001669004MORTADELA PERDIGAO BOLOGN                                                                                                                                                                                                                                                                                   
01010000216001899030DOCE AUREA KG                                                                                                                                                                                                                                                                                               
01010000219001990004MORTADELA SADIA DEFUMADA                                                                                                                                                                                                                                                                                    
01010000220001990000ROULE PERU VITA LIGHT SAD                                                                                                                                                                                                                                                                                   
01010000221001490015BREVIDADE KG                                                                                                                                                                                                                                                                                                
01010000222001390007SEQUILHOS CASEIRO KG                                                                                                                                                                                                                                                                                        
01010000223001099004PRESUNTO WILSON COZ C/GOR                                                                                                                                                                                                                                                                                   
01010000225000629045LOMBO TEMPERADO BATAVO KG                                                                                                                                                                                                                                                                                   
01010000227000695030LINGUICA ROSFRIOS SUINA K                                                                                                                                                                                                                                                                                   
01011000228015867007BANDEJA M54 VERDE 400UN                                                                                                                                                                                                                                                                                     
01010000229001090090MOCOTO BDJ KG                                                                                                                                                                                                                                                                                               
01010000233001890090RABINHO SUINO IN NATURA B                                                                                                                                                                                                                                                                                   
01010000234000990030LOMBO DEFUMADO CLASSIC RO                                                                                                                                                                                                                                                                                   
01010000235000349008SALSICHA HOT DOG ROSFRIOS                                                                                                                                                                                                                                                                                   
01010000236001590001BROA FUBA SALGADA TEMP KG                                                                                                                                                                                                                                                                                   
01010000237001390008LINGUICA FRANGO SADIA CON                                                                                                                                                                                                                                                                                   
01010000238001590030BISCOITO BEIJINHO DE FREI                                                                                                                                                                                                                                                                                   
01010000243001490060PRESUNTO COZIDO MAGRO ROS                                                                                                                                                                                                                                                                                   
01010000245001990004PRESUNTO PERU DEF LIGHT S                                                                                                                                                                                                                                                                                   
01010000246002999000ALCATRA KG                                                                                                                                                                                                                                                                                                  
01010000248001890007MARIA MOLE KG                                                                                                                                                                                                                                                                                               
01010000249001890060PRESUNTO AURORA KG                                                                                                                                                                                                                                                                                          
01010000250001590030BISC COSME DAMIAO CAJUZIN                                                                                                                                                                                                                                                                                   
01010000253004990010PICANHA RECORTE BERTIN KG                                                                                                                                                                                                                                                                                   
01010000255006990010PICANHA BERTIN NOBRE KG                                                                                                                                                                                                                                                                                     
01010000256001590180BISC COSME DAMIAO CATANHA                                                                                                                                                                                                                                                                                   
01010000257001150004APRESUNTADO MAX KG                                                                                                                                                                                                                                                                                          
01010000258001590180BISC COSME DAMIAO JUJU KG                                                                                                                                                                                                                                                                                   
01010000259001590030BISC COSME DAMIAO MILHO V                                                                                                                                                                                                                                                                                   
01010000262001890180BISC COSME DAMIAO PALITO                                                                                                                                                                                                                                                                                    
01010000263004990000QUEIJO CALU MINAS PADRAO                                                                                                                                                                                                                                                                                    
01010000265001690180BISC COSME DAMIAO Q Q JUJ                                                                                                                                                                                                                                                                                   
01010000266001490010COXAO MOLE ASSADO                                                                                                                                                                                                                                                                                           
01010000268000990030ESPETINHO BOVINO KG                                                                                                                                                                                                                                                                                         
01010000269002190004PRESUNTO REZENDE KG                                                                                                                                                                                                                                                                                         
01010000270003990015CUPIM RECHEADO KG                                                                                                                                                                                                                                                                                           
01010000271000399030FRANGO FESTEJO TEMP SERTA                                                                                                                                                                                                                                                                                   
01010000272002490010COCADINHA KG                                                                                                                                                                                                                                                                                                
01010000273001690180BISC COSME DAMIAO ROMEU J                                                                                                                                                                                                                                                                                   
01010000275004990000TENDER S/OSSO MINI SADIA                                                                                                                                                                                                                                                                                    
01010000276006000060CAMPO DE TRIGO UNICAO LAT                                                                                                                                                                                                                                                                                   
01010000277002190000PERU INTEIRO SADIA TEMP C                                                                                                                                                                                                                                                                                   
01010000278006990000SALAME SADIA ITALIANO KG                                                                                                                                                                                                                                                                                    
01010000279000449060FRANGO RESFRIADO ITABOM I                                                                                                                                                                                                                                                                                   
01010000281001990090LEITOA KG                                                                                                                                                                                                                                                                                                   
01010000282009999060SUINO RACHADO KG                                                                                                                                                                                                                                                                                            
01010000283001590030BISC COSME DAMIAO UGA UGA                                                                                                                                                                                                                                                                                   
01010000284000499030PE DE MOLEQUE  MOIDO KG                                                                                                                                                                                                                                                                                     
01010000288001490015SUINO SERRADO KG                                                                                                                                                                                                                                                                                            
01010000289003990004PEITO CHESTER PERDIGAO DE                                                                                                                                                                                                                                                                                   
01010000290001059015PEITO PERU BATAVO KG                                                                                                                                                                                                                                                                                        
01010000291001390007PAO 7 GRAOS KG                                                                                                                                                                                                                                                                                              
01010000292001590180BISC COSME DAMIAO BANANEL                                                                                                                                                                                                                                                                                   
01010000293002990360COCO RALADO A GRANEL KG                                                                                                                                                                                                                                                                                     
01010000294001990000PRESUNTO SADIA PERU COZ L                                                                                                                                                                                                                                                                                   
01010000296006990000SALAMINHO SADIA MINI KG                                                                                                                                                                                                                                                                                     
01010000297001990004PAO BATATA KG                                                                                                                                                                                                                                                                                               
01010000299000619015LINGUICA CLUTA PERNIL KG                                                                                                                                                                                                                                                                                    
01010000301000449015AVE PIF PAF TEMP FESTA KG                                                                                                                                                                                                                                                                                   
01010000303000689005LINGUICA SADIA CALAB DEFU                                                                                                                                                                                                                                                                                   
01010000305001690365FRUTAS CRISTAL UNIAGRO CU                                                                                                                                                                                                                                                                                   
01010000306001290006LINGUICA FRANGO REZENDE K                                                                                                                                                                                                                                                                                   
01010000308002499030TENDER BATAVO PRESUNTO TE                                                                                                                                                                                                                                                                                   
01010000310001690004CHESTER PERDIGAO MINI KG                                                                                                                                                                                                                                                                                    
01010000312004490015BACALHAU SAITH EXTRA KG                                                                                                                                                                                                                                                                                     
01010000313001500015PERA PORTUGUESA KG                                                                                                                                                                                                                                                                                          
01010000314006990005SALAMINHO BANDEJA KG                                                                                                                                                                                                                                                                                        
01010000315002990000QUEIJO SERRA NEGRA PROVOL                                                                                                                                                                                                                                                                                   
01010000316001690004BOLO COCO KG                                                                                                                                                                                                                                                                                                
01010000317000990005TREMOCO KG                                                                                                                                                                                                                                                                                                  
01010000318001990004BOLO NOZES KG                                                                                                                                                                                                                                                                                               
01010000320001690004BOLO LARANJA KG                                                                                                                                                                                                                                                                                             
01010000322004990003PEITO PERU DEF SADIA KG                                                                                                                                                                                                                                                                                     
01010000324001999000PRESUNTO PERU DEF LIG FAM                                                                                                                                                                                                                                                                                   
01010000327001690030BISCOITO FUBA CANJICA KG                                                                                                                                                                                                                                                                                    
01010000329000399030MOELA FRANGO SERTANEJO KG                                                                                                                                                                                                                                                                                   
01010000331000689015RETALHO BACON SAUDALI RET                                                                                                                                                                                                                                                                                   
01010000332001990006LINGUICA GRANDIOSA PERNIL                                                                                                                                                                                                                                                                                   
01010000333002980000SALAME SADIA MILANES MINI                                                                                                                                                                                                                                                                                   
01010000334001990006LINGUICA GRANDIOSA BACON/                                                                                                                                                                                                                                                                                   
01010000335001790004BOLO MAE BENTA KG                                                                                                                                                                                                                                                                                           
01010000337001990004PAO COCO KG                                                                                                                                                                                                                                                                                                 
01011000338001139008FIGO ROXO BANDEJA                                                                                                                                                                                                                                                                                           
01010000343003780060GOIABADA CASCAO KG (PADAR                                                                                                                                                                                                                                                                                   
01010000346000699010MEIO DA ASA TULIPA ITABOM                                                                                                                                                                                                                                                                                   
01010000348001590004RETALHO PRESUNTO KG                                                                                                                                                                                                                                                                                         
01010000349001000007PASTA POLIONDA 35MM VERME                                                                                                                                                                                                                                                                                   
01010000351001590180BISC COSME DAMIAO BAMBOLE                                                                                                                                                                                                                                                                                   
01010000353000499030COXA SOBRECOXA FRANGO ITA                                                                                                                                                                                                                                                                                   
01010000355001990150DOCE ABELHINHA AMEIXA DE                                                                                                                                                                                                                                                                                    
01010000356001190015DOCE ABELHINHA MAMAO RALA                                                                                                                                                                                                                                                                                   
01010000357002290000SALAMINHO BATAVO KG                                                                                                                                                                                                                                                                                         
01010000358000289030PEITO FRANGO CONG RICO RA                                                                                                                                                                                                                                                                                   
01010000359002490030LINGUICA FILE PEIXE/CHAMP                                                                                                                                                                                                                                                                                   
01010000360001990150DOCE ABELHINHA BANANA KG                                                                                                                                                                                                                                                                                    
01011000361003990030CHAMPIGNON CONSERVA AGRAN                                                                                                                                                                                                                                                                                   
01010000362003990030QUEIJO LARA TRANCA AO ALH                                                                                                                                                                                                                                                                                   
01010000363003990000SALAMINHO REZENDE KG                                                                                                                                                                                                                                                                                        
01010000365000799000FRANGO SADIA CONG KG                                                                                                                                                                                                                                                                                        
01010000366002990004QUEIJO SERRA NEGRA PROVOL                                                                                                                                                                                                                                                                                   
01010000367001099000QUEIJO SERRA NEGRA MINAS                                                                                                                                                                                                                                                                                    
01010000368001649005PERNIL SUINO COM OSSO KG                                                                                                                                                                                                                                                                                    
01010000369001590015FILE PEITO FRANGO DESFIAD                                                                                                                                                                                                                                                                                   
01010000372002990003QUEIJO SERRA NEGRA MUSSAR                                                                                                                                                                                                                                                                                   
01010000373000569045LINGUICA SADIA CALABESA C                                                                                                                                                                                                                                                                                   
01010000376001299030PRESUNTO FRANGO KG                                                                                                                                                                                                                                                                                          
01010000380000699000FRANGO CONG ATALAIA KG                                                                                                                                                                                                                                                                                      
01010000381003290000CONTRA FILE KG                                                                                                                                                                                                                                                                                              
01011000383001090030COLOMBA PASCOAL UN                                                                                                                                                                                                                                                                                          
01010000384001890003BOLO INDIANO KG                                                                                                                                                                                                                                                                                             
01010000385001990001PAO QUEIJO KG                                                                                                                                                                                                                                                                                               
01011000386000279045LINGUICA SEARA P/CHURRASC                                                                                                                                                                                                                                                                                   
01010000387000849004TOMATAO ROXO KG                                                                                                                                                                                                                                                                                             
01010000388000129030BATATA MONALISA MIUDA BOL                                                                                                                                                                                                                                                                                   
01010000389000259045LINGUICA SEARA TOSCANA KG                                                                                                                                                                                                                                                                                   
01010000391000599025LANCHE SADILAR KG                                                                                                                                                                                                                                                                                           
01010000393004000030TEGRAL PAO DE LO 2KG                                                                                                                                                                                                                                                                                        
01010000394001209030BOI CASADO BANDA KG                                                                                                                                                                                                                                                                                         
01010000396000223030MORTADELA SUINA AURORA KG                                                                                                                                                                                                                                                                                   
01010000399000259030LANCHE BATAVO PERU KG                                                                                                                                                                                                                                                                                       
01010000405001990005PAO LUA DE MEL/ESPECIAL K                                                                                                                                                                                                                                                                                   
01010000406008990090AVELA UNIAGRO S/CASACA AG                                                                                                                                                                                                                                                                                   
01010000407001990150DOCE ABELHINHA MAMAO PEDA                                                                                                                                                                                                                                                                                   
01010000408001790004PUDIM LEITE COND KG                                                                                                                                                                                                                                                                                         
01010000409001690005LINGUICA SADIA TOSCANA KG                                                                                                                                                                                                                                                                                   
01010000411001190015DOCE ABELHINHA COCADA BRA                                                                                                                                                                                                                                                                                   
01010000412001090030BOLACHA CHAMPAGNE KG                                                                                                                                                                                                                                                                                        
01010000414002190030NOZES C/CASCA AGRANEL KG                                                                                                                                                                                                                                                                                    
01010000415001490030MORTADELA AURORELLA BOLON                                                                                                                                                                                                                                                                                   
01010000416001490030LARANJA KINKAN KG                                                                                                                                                                                                                                                                                           
01010000418000379008MORTADELA CHAPECO SAPORE                                                                                                                                                                                                                                                                                    
01010000420000329030MORTADELA ROSFRIOS CLASSI                                                                                                                                                                                                                                                                                   
01010000421001299045BACON ROSFRIOS TABLETE KG                                                                                                                                                                                                                                                                                   
01010000422004830000QUEIJO CALU PRATO MINI KG                                                                                                                                                                                                                                                                                   
01010000423001059008PEITO PERU BATAVO COZIDO                                                                                                                                                                                                                                                                                    
01010000424000830030BOLACHA AMANTEIGADOS KG                                                                                                                                                                                                                                                                                     
01010000425001299000FRANGO CAIPIRA NHO BENTO                                                                                                                                                                                                                                                                                    
01010000426003990004QUEIJO CALU MUSS GRANDE T                                                                                                                                                                                                                                                                                   
01010000428002790004QUEIJO CALU PRATO GRANDE                                                                                                                                                                                                                                                                                    
01010000429001390030SALAME SADIA ITALIANO HAM                                                                                                                                                                                                                                                                                   
01010000432000689030PINHAO KG                                                                                                                                                                                                                                                                                                   
01010000433001490005QUEIJO SERRA NEGRA PRATO                                                                                                                                                                                                                                                                                    
01010000434001590180BISC COSME DAMIAO PAO MEL                                                                                                                                                                                                                                                                                   
01010000435001790004PAO CENTEIO KG                                                                                                                                                                                                                                                                                              
01010000436000799004SALSICHA HOT DOG PIF PAF                                                                                                                                                                                                                                                                                    
01010000440000599010ABOBORA MENINA SELECIONAD                                                                                                                                                                                                                                                                                   
